:020000040800F2
:1000000058060020510B0008490200084B02000866
:100010004F020008530200085702000800000000C9
:100020000000000000000000000000005B0200086B
:100030005D020008000000005F0200086102000885
:100040006B0B00086B0B00086B0B00086B0B0008B8
:100050006B0B00086B0B00086B0B00086B0B0008A8
:100060006B0B00086B0B00086B0B00086B0B000898
:100070006B0B00086B0B00086B0B00086B0B000888
:100080006B0B00086B0B00086B0B00086B0B000878
:100090006B0B00086B0B00086B0B00086B0B000868
:1000A0006B0B0008190500086B0B00086B0B0008B0
:1000B0006B0B00086B0B0008000000006B0B0008C6
:1000C0006B0B000800000000000000006B0B000834
:1000D000000000007D0900089D0A000800000000E3
:1000E0006B0B00086B0B00086B0B0008DFF80CD0E3
:1000F00002F04EFC00480047170100085806002097
:1001000001460020012202E08B5C5840521C8B5CAF
:100110002A2BF9D17047B2B04FF4E13000F071FCF6
:1001200010E02B48006868B1C8222A49684602F0EE
:1001300021FA684602F042FA274908800020274940
:10014000088000E0EDE700BF2348018824A002F00A
:10015000A3FC41F61F4142F20F7000F010FB1E4855
:1001600000880A2806D140F2CF2142F20F7000F039
:1001700069F916E018480088142805D147214CF287
:100180004F3000F05FF90CE013480088282805D1B3
:10019000472146F2A71000F055F902E018A002F03E
:1001A0007BFC13E02448008801280FD12348FFF787
:1001B000A7FF04462246214921A002F06DFC8021C0
:1001C0001E4802F0F0F900201B490880EAE7000011
:1001D00034000020900100200000002030000020AA
:1001E00052656365697665642043616D657261205F
:1001F0006672657175656E63793A2025750A00002F
:100200004552524F523A5468652076616C756520AC
:100210006F662072656365697665645F63616D5FB3
:1002200066726571206D75737420626520323020AE
:100230006F72203430210A00280000209000002036
:100240002573253032580000704700BFFEE700BF1D
:10025000FEE700BFFEE700BFFEE77047704770474C
:10026000704700000CB50020019000906C480068B9
:1002700040F480306A49086000BF6948006800F4B3
:10028000003000900198401C0190009818B9019826
:10029000B0F5A06FF1D16248006800F4003010B1F1
:1002A0000120009001E0002000900098012843D137
:1002B0005C48006840F010005A4908600846006831
:1002C00020F0030008600846006840F00200086063
:1002D00053484068524948600846406848600846AC
:1002E000406840F4806048600846406820F47C1014
:1002F00048600846406840F4E810486008460068D6
:1003000040F08070086000BF4548006800F0007051
:100310000028F9D04248406820F003004049486076
:100320000846406840F00200486000BF3C48406812
:1003300000F00C000828F9D10CBD10B5FFF792FFB2
:1003400010BD10B53648006840F00100344908601F
:10035000084640683449084031494860084600680A
:10036000324908402E4908600846006820F4802081
:1003700008600846406820F4FE0048604FF41F0003
:100380008860FFF7DAFF4FF000602949086010BD70
:1003900010B5002100200022214B5B6803F00C0106
:1003A00021B1042906D0082928D107E0214B224C8D
:1003B000236027E01F4B204C236023E0184B5B6831
:1003C00003F47010164B5B6803F48032022303EBD6
:1003D000904022B9194B4343174C23600DE0104B5A
:1003E0005B6803F4003323B1144B4343124C236086
:1003F00003E0104B4343104C236003E00D4B0E4CC5
:10040000236000BF00BF064B5B68C3F303130C4CB3
:10041000E15C094B1B68CB40074C236010BD00001A
:1004200000100240002002400000FFF8FFFFF6FE2F
:1004300008ED00E000127A000400002000093D00F1
:10044000080000202DE9F04389B0044689460121C7
:10045000042000F019FF0121C80200F015FF4FF43D
:100460008060ADF8200003208DF8220018208DF860
:10047000230008A9EF4800F04BFC7020ADF8040001
:100480000120ADF80600204602F086F9074600225A
:10049000E94B02F0A0F8054602F08BF980B2ADF806
:1004A0000A000020ADF80C004FF48070ADF8100089
:1004B00001A9E24801F0ECF8ADF81840ADF814904D
:1004C0000020ADF81A00ADF816008DF81C0005A943
:1004D000DA4801F011F80821D84801F0AFFC0122F8
:1004E0001146D64801F07FFB19208DF8000001204D
:1004F0008DF801008DF802008DF80300684600F0C9
:100500003EFB0121CD4801F053FB0121CB4801F016
:100510005BFB09B0BDE8F0832DE9FC5F0121C74812
:1005200001F00FFE00287DD00121C44801F01AFE21
:10053000C3480068401CC24908600846006802F0D1
:100540002BF906460F46BF48008802F025F9804681
:1005500042460B460020BC4902F0AFF882463246C4
:100560003B4602F038F8044602F023F9B749086028
:10057000084600684FF47A71B0FBF1F201FB1200FB
:1005800058BBB2480068B0FBF1F03C21B0FBF1F27F
:1005900001FB1204AD4800684FF47A71B0FBF1F032
:1005A0004FF46161B0FBF1F201FB12003C21B0FBA2
:1005B000F1F5A64800684FF47A71B0FBF1F04FF402
:1005C0006161B0FBF1F62B463246A149A148009487
:1005D00002F072FA0120A04908809A480088142885
:1005E00007D19A4800683221B0FBF1F201FB1200FA
:1005F000D0B194480088282807D194480068192170
:10060000B0FBF1F201FB120070B18E4800880A289D
:1006100044D18E4800686421B0FBF1F201FB120066
:10062000002800E03AE039D140218C4801F0BBFFBE
:10063000864800684FF47A71B0FBF1F201FB1204B6
:1006400082480068B0FBF1F03C21B0FBF1F201FB05
:1006500012057E4800684FF47A71B0FBF1F04FF458
:100660006161B0FBF1F201FB12003C21B0FBF1F63D
:10067000764800684FF47A71B0FBF1F04FF4616195
:10068000B0FBF1F733463A4675A17448CDE9005402
:1006900002F012FA71497CA002F0FEF9BDE8FC9F5D
:1006A00070B58AB004460D460121084600F0F9FDF8
:1006B0000121042000F0E8FD4FF0804000F048FEEA
:1006C0000220ADF8240018208DF8270003208DF8B3
:1006D000260009A9574800F01BFB601E80B2ADF848
:1006E0001C00681E80B2ADF818000020ADF81E0096
:1006F000ADF81A0006A94FF0804000F0FDFEC4F3EB
:100700004F00ADF80E007020ADF808000120ADF8E4
:100710000A000020ADF81000ADF80C000821C80652
:1007200001F07FFB02A94FF0804000F064FF01213F
:10073000880701F03DFB0121880701F039FA012209
:100740001146900701F04FFA1C208DF8040000209C
:100750008DF8050003208DF8060001208DF80700B4
:1007600001A800F00CFA4FF08040868D06EBD670A1
:1007700041104FF0804001F0B5FC0AB070BD2DE98A
:10078000F04788B0044689460121022000F089FD27
:100790000121092000F078FD01213C4800F089FB8F
:1007A0002020ADF81C0018208DF81F0003208DF8C4
:1007B0001E0007A9364800F0ABFAADF81440ADF8BA
:1007C00010900020ADF81600ADF8120004A93148D1
:1007D00000F092FE7020ADF800000120ADF802009C
:1007E0000020ADF8080069462A4800F004FF0821FF
:1007F000284801F016FB0121264801F0D9F92549C6
:100800002C31088801F0C8FF0746234A234B01F02A
:10081000E2FE054601F0CDFF1FFA80FA51461D4861
:1008200001F060FC012211461A4801F0DCF908B021
:10083000BDE8F087000801400000E03F002C0140C7
:100840001C0000200000002000408F4020000020FD
:10085000FC2F0008900000202800002050000020FD
:100860002463616D2C323031382E30332E31322CEE
:10087000253032643A253032643A253032643A25E4
:1008800030336423000000002573000000081A00C4
:10089000000C014000040040CDCCCCCCCCCCEC3FD3
:1008A000014600BF704770B504460D46E1B29D4851
:1008B00001F098FD00BF80219A4801F001FE002858
:1008C000F9D0204670BD10B500234FF48062194660
:1008D00095484FF0FF3095489549086095489649EE
:1008E000086010BD10B586B00446012144F2040032
:1008F00000F0CAFC4FF40070ADF8140003208DF82E
:10090000160018208DF8170005A98C4800F000FA91
:100910004FF48060ADF8140004208DF8170005A98D
:10092000864800F0F5F925208DF8000003208DF8A9
:1009300001008DF8020001208DF80300684600F0E8
:100940001EF901940020ADF80800ADF80A00ADF8DA
:100950000C00ADF810000C20ADF80E0001A978488D
:1009600001F047FC012240F22551754801F0D9FC05
:100970000121734801F0C9FC06B010BD10B540F26A
:1009800025516F4801F0B2FD002839D06C4801F0C4
:100990002DFDC4B26B48008800F4004080BB69485C
:1009A000008800F4804088B10A2C05D000206549F9
:1009B00008806549086023E06248008840F40040F0
:1009C0006049088001206049086019E00D2C06D1BB
:1009D0005C48008840F480405A49088010E059483B
:1009E0000088C0F30D0059490C5456480088401C3B
:1009F0005449088008460088C72801DD0020088087
:100A000010BD10B586B004460121042000F03CFC66
:100A10000121480400F045FC0420ADF81400182022
:100A20008DF8170003208DF8160005A9434800F043
:100A30006FF90820ADF8140004208DF8170005A9FF
:100A40003E4800F065F926208DF8000001208DF861
:100A5000030003208DF801008DF80200684600F0C5
:100A60008EF801940020ADF80800ADF80A00ADF84A
:100A70000C00ADF810000C20ADF80E0001A92948BB
:100A800001F0B7FB012240F22551264801F049FC54
:100A90000121244801F039FC06B010BD10B540F228
:100AA0002551204801F022FD002839D01D4801F0D1
:100AB0009DFCC4B22348008800F4004080BB21485C
:100AC000008800F4804088B10A2C05D000201D4920
:100AD00008801D49086023E01A48008840F400405F
:100AE0001849088001201849086019E00D2C06D12A
:100AF0001448008840F480401249088010E01148F2
:100B00000088C0F30D0011490C540E480088401CA9
:100B10000C49088008460088C72801DD00200880AD
:100B200010BD0000004400402C00002055CEACC594
:100B3000B00F00E003000100800E00E0000801405B
:100B400000380140300000203400002090010020D7
:100B50000648804706480047FEE7FEE7FEE7FEE757
:100B6000FEE7FEE7FEE7FEE7FEE7FEE743030008D9
:100B7000ED00000831490143314A1160704770B5FA
:100B8000002100230F22C47804B32D4C246804F400
:100B9000E064C4F5E064210AC1F10403CA4044786A
:100BA00004FA03F18478144021430901254C0678A6
:100BB000A155047804F01F050124AC4005786D119F
:100BC000AD0005F1E025C5F8004109E0047804F026
:100BD0001F050124AC401C4D0678761145F82640CF
:100BE00070BD1A4A0A400243154B1B1F1A6070471A
:100BF00039B1134A121D12680243114B1B1D1A60B2
:100C000006E00F4A121D126882430D4B1B1D1A602D
:100C10007047042808D14FF0E021096941F0040130
:100C20004FF0E022116107E04FF0E021096921F067
:100C300004014FF0E0221161704700000000FA0546
:100C40000CED00E000E400E080E100E080FFFF1F29
:100C500010B50446CC48844208D10121042000F09C
:100C60002DFB0021042000F029FB46E0C748844208
:100C700008D10121082000F021FB0021082000F00C
:100C80001DFB3AE0C248844208D10121102000F047
:100C900015FB0021102000F011FB2EE0BD4884421E
:100CA00008D10121202000F009FB0021202000F0C4
:100CB00005FB22E0B848844208D10121402000F021
:100CC000FDFA0021402000F0F9FA16E0B348844212
:100CD00008D10121802000F0F1FA0021802000F0ED
:100CE000EDFA0AE0AE48844207D10121801500F0F8
:100CF000E5FA0021A01500F0E1FA10BD10B50121C0
:100D0000084600F0DBFA0021012000F0D7FA10BD00
:100D10002DE9F04102460025002600200023002492
:100D2000002791F803C00CF00F0591F803C00CF0F8
:100D3000100CBCF1000F03D091F802C04CEA05057D
:100D400091F800C0BCF1000F31D0146800202BE0F6
:100D50004FF0010C0CFA00F3B1F800C00CEA0306E6
:100D60009E4220D183004FF00F0C0CFA03F7BC43D6
:100D700005FA03FC4CEA040491F803C0BCF1280F07
:100D800006D14FF0010C0CFA00FCC2F814C00AE0C6
:100D900091F803C0BCF1480F05D14FF0010C0CFADB
:100DA00000FCC2F810C0401C0828D1D31460B1F870
:100DB00000C0BCF1FF0F34DD546800202EE000F1CC
:100DC000080C4FF0010808FA0CF3B1F800C00CEA67
:100DD00003069E4221D183004FF00F0C0CFA03F75B
:100DE000BC4305FA03FC4CEA040491F803C0BCF1CF
:100DF000280F05D100F1080C08FA0CF8C2F814808D
:100E000091F803C0BCF1480F07D100F1080C4FF076
:100E1000010808FA0CF8C2F81080401C0828CED34C
:100E20005460BDE8F0814FF6FF71018002218170AE
:100E30000421C17070470246002093680B400BB13B
:100E4000012000E0002070470146886880B27047AA
:100E500002460020D3680B400BB1012000E00020C7
:100E600070470146C86880B27047016170474161B0
:100E700070470AB1016100E041617047C16070478D
:100E80004FF480320A4382618161826182698269A2
:100E9000704702460020434B18684FF68073184095
:100EA00040EA021008433F4B186070473E49C86152
:100EB0007047F0B50A46002300240021002500F009
:100EC0000046B6F1004F02D1364EF16901E0354ED1
:100ED0007168C0F3034583B200F44016B6F5401FB5
:100EE00008D121F070612F4E766826F070662D4F84
:100EF0007E6012E000F48016B6F5801F06D103264E
:100F000006FA05F4A14341F0706106E0460D360192
:100F100003FA06F6B14341F0706122B1460D360185
:100F200003FA06F6314300F00046B6F1004F02D155
:100F30001C4EF16101E01B4E7160F0BD30B5002226
:100F40008B071C0F0F2303FA04F2164B08338C1087
:100F500053F824309343134C08348D1044F8253053
:100F600023468C1053F824308C07240F00FA04F425
:100F700023430C4C08348D1044F8253030BD0A4909
:100F8000DC3108607047000000080140000C01409F
:100F9000001001400014014000180140001C0140F5
:100FA000002001400000014000002042DF480068AE
:100FB00040F00100DD49086008464068DC4908400F
:100FC000DA49486008460068DA490840D7490860AD
:100FD0000846006820F4802008600846406820F435
:100FE000FE0048604FF41F0088607047CF490968D1
:100FF00021F48031CD4A11601146096821F4802125
:101000001160B0F5803F03D0B0F5802F0ED106E01F
:10101000C649096841F48031C44A116007E0C349F8
:10102000096841F4A021C14A116000E000BF00BF7F
:10103000704710B501460022002300204A11012A02
:1010400002D1BA4C236806E0022A02D1B74C236AC7
:1010500001E0B64C636A01F01F02012494401C4079
:101060000CB1012000E0002010BD38B50020009038
:101070000024002500BF3120FFF7DBFF0546009864
:10108000401C00900098B0F5A06F01D0002DF2D068
:101090003120FFF7CEFF08B1012400E000242046F4
:1010A00038BD01460020A14A106820F0F80040EA4F
:1010B000C10010607047A0490860704702460020D8
:1010C0009A4B586820F47C1042EA01031843974B6E
:1010D0005860704798490866704701460020934A57
:1010E000506820F003000843506070478F48406804
:1010F00000F00C007047014600208C4A506820F038
:10110000F00008435060704701460020874A50684D
:1011100020F4E06008435060704701460020834A95
:10112000506820F4605040EAC1005060704729B117
:101130007E4A527A02437D4B5A7204E07B4A527ACD
:1011400082437A4B5A7270477B49D83108607047A6
:1011500001460020754A506820F440400843506022
:1011600070470021714A20321170704A82F82010B5
:10117000012802D004280AD104E001216B4A203260
:10118000117005E00521694A2032117000E000BFAE
:1011900000BF70476949086070476449096A0143A4
:1011A000624A11627047654944390860704730B53A
:1011B00000210022002400235C4D6D6805F00C0125
:1011C00021B1042905D0082923D105E05C4D056033
:1011D00022E05B4D05601FE0544D6D6805F4701210
:1011E000524D6D6805F48034022505EB92421CB91E
:1011F000544D554305600BE04C4D6D6805F40035CA
:101200001DB1504D5543056002E04D4D55430560FD
:1012100002E04B4D056000BF00BF444D6D6805F016
:10122000F0010909484D6B5C0568DD4045603F4DA4
:101230006D6805F4E061090A434D6B5C4568DD406B
:1012400085603A4D6D6805F46051C90A3E4D6B5C8E
:101250004568DD40C560354D6D6805F44041890B3A
:101260003A4D6B5CC568B5FBF3F5056130BD29B13E
:101270002E4A526902432D4B5A6104E02B4A5269AF
:1012800082432A4B5A61704729B1284A9269024326
:10129000264B9A6104E0254A92698243234B9A6166
:1012A000704729B1214AD2690243204BDA6104E038
:1012B0001E4AD26982431D4BDA61704729B11B4A2D
:1012C000D2680243194BDA6004E0184AD2688243BC
:1012D000164BDA60704729B1144A12690243134B66
:1012E0001A6104E0114A12698243104B1A61704777
:1012F00012494039086070470F49C86470470B496C
:10130000C87170470948406A40F0807007494862D8
:10131000704701460020054A92680A400AB1012040
:1013200000E00020704701498872704700100240B9
:101330000000FFF8FFFFF6FE000042428004424238
:1013400000127A0000093D0038000020480000200B
:1013500010B50446FE48844208D10121C014FFF7AD
:10136000ADFF0021E014FFF7A9FFC4E0B4F1804F06
:1013700008D101210846FFF7AEFF00210120FFF749
:10138000AAFFB8E0F348844208D101210220FFF708
:10139000A2FF00210220FFF79EFFACE0EE4884424E
:1013A00008D101210420FFF796FF00210420FFF758
:1013B00092FFA0E0E948844208D101210820FFF70C
:1013C0008AFF00210820FFF786FF94E0E44884426A
:1013D00008D101211020FFF77EFF00211020FFF728
:1013E0007AFF88E0DF48844208D101212020FFF7FE
:1013F00072FF00212020FFF76EFF7CE0DA48844274
:1014000008D101214014FFF759FF00216014FFF7B4
:1014100055FF70E0D548844209D10121C804FFF787
:101420004DFF00214FF40020FFF748FF63E0D04854
:10143000844209D101210805FFF740FF00214FF444
:101440008010FFF73BFF56E0CA48844209D10121D2
:101450004805FFF733FF00214FF40010FFF72EFF80
:1014600049E0C548844208D101214020FFF733FFFD
:1014700000214020FFF72FFF3DE0C048844208D103
:1014800001218020FFF727FF00218020FFF723FFA5
:1014900031E0BB48844208D101218015FFF71BFFD2
:1014A0000021A015FFF717FF25E0B648844209D1B7
:1014B00001210804FFF702FF00214FF48030FFF7FD
:1014C000FDFE18E0B048844209D101214804FFF72D
:1014D000F5FE00214FF40030FFF7F0FE0BE0AB48C3
:1014E000844208D101218804FFF7E8FE00214FF46F
:1014F0008020FFF7E3FE10BD00220288944B984243
:101500000ED0994B98420BD0B0F1804F08D0914B40
:10151000984205D0904B984202D0904B984204D10B
:101520004FF68F731A404B881A438D4B984207D061
:101530008C4B984204D04FF6FF431A40CB881A4395
:1015400002808B8883850B880385814B98420BD062
:10155000854B984208D08B4B984205D08A4B9842D5
:1015600002D08A4B984201D10B7A038601238382F1
:10157000704770B5002400220023058C4FF6FE76DC
:1015800035400584028C8388048B4FF68F752C4080
:10159000B51E2C400D882C43751E2A400D892A4308
:1015A0004D882A436A4DA8420BD06F4DA84208D0FF
:1015B000744DA84205D0744DA84202D0734DA84284
:1015C00013D14FF6F7752A404D892A434FF6FB7524
:1015D0002A408D882A434FF6FF652B404FF6FF5572
:1015E0002B408D892B43CD892B4383800483CD8869
:1015F0008586028470BD70B5002400220023058C0E
:101600004FF6EF7635400584028C8388048B48F6CC
:10161000FF752C404FF6FF452C400D884FF6FF76A6
:1016200006EA05252C434FF6DF752A400D8906EAA8
:1016300005152A434D8806EA05152A43444DA8425C
:1016400002D0494DA8421DD14FF67F752A404D89E1
:101650004FF6FF7606EA05152A434FF6BF752A4076
:101660008D8806EA05152A434FF6FF352B404FF2C9
:10167000FF752B408D8906EA85052B43CD8906EA47
:1016800085052B4383800483CD880587028470BD44
:1016900070B5002400220023058C4FF6FF6635400C
:1016A0000584028C8388848B4FF68F752C404FF60F
:1016B000FC752C400D882C434FF6FF552A400D89B0
:1016C0004FF6FF7606EA05252A434D8806EA0525EA
:1016D0002A431F4DA84202D0234DA8421DD14FF2EC
:1016E000FF752A404D894FF6FF7606EA05252A4305
:1016F0004FF6FF352A408D8806EA05252A434EF627
:10170000FF752B404DF6FF752B408D8906EA0515B8
:101710002B43CD8906EA05152B4383808483CD882E
:101720008587028470BD70B5002200230024058CDB
:101730004EF6FF7635400584038C8488828B48F60C
:10174000FF752A404FF6FF452A400D8820E0000033
:10175000002C01400004004000080040000C004044
:10176000001000400014004000340140004C0140D3
:10177000005001400054014000180040001C00408F
:10178000002000400040014000440140004801406A
:101790004FF6FF7606EA05252A434DF6FF752B40E6
:1017A0000D8906EA05352B434D8806EA05352B439E
:1017B000FA4DA84202D0FA4DA84208D14BF6FF7567
:1017C0002C408D894FF6FF7606EA85152C438480E0
:1017D0008283CD88A0F84050038470BD828B4FF285
:1017E000FF331A408283828B4FF6FF7303EA012393
:1017F0001A4382837047F0B50C461546002200213B
:101800000026078C4EF6FF7C07EA0C070784828BC4
:10181000018C4FF6FF7707EA043640F6FF473A405F
:101820004FF6FF7707EA05273A434FF6FF7707EAB7
:1018300003373A43D94FB8420ED0D94FB8420BD0F4
:10184000B0F1804F08D0D74FB84205D0D64FB8423C
:1018500002D0D64FB84206D14DF6FF77394046F454
:101860008057394305E047F6FF57394044F4805725
:10187000394382830184F0BD828B4FF6F3731A40A3
:101880008283828B0A4382837047F0B50C461546EB
:10189000002200210026078C4FF6FF6C07EA0C0798
:1018A0000784828B018C4FF6FF7707EA04264FF6F8
:1018B0000C773A404FF6FF7707EA03172F433A4376
:1018C000B64FB8420ED0B64FB8420BD0B0F1804FF1
:1018D00008D0B44FB84205D0B34FB84202D0B34F8E
:1018E000B84206D14FF6FF57394046F48077394366
:1018F00005E04FF2FF57394044F480773943828343
:101900000184F0BD028B4FF2FF331A400283028B39
:101910004FF6FF7303EA01231A4302837047F0B5C1
:101920000C461546002200210026078C4FF6EF7C5E
:1019300007EA0C070784028B018C4FF6FF7707EA52
:10194000041640F6FF473A404FF6FF7707EA0337A1
:101950003A434FF6FF7707EA05273A438F4FB842DD
:101960000ED08F4FB8420BD0B0F1804F08D08D4FC2
:10197000B84205D08C4FB84202D08C4FB84206D145
:101980004FF6DF77394046F01007394305E04FF650
:101990005F77394044F01007394302830184F0BD7A
:1019A000028B4FF6F3731A400283028B0A430283C1
:1019B0007047F0B50C46154600220021068C4FF604
:1019C000FE773E400684028B018C4FF60C76324047
:1019D0007E1C06EA03162E433243704EB0420ED0F0
:1019E0006F4EB0420BD0B0F1804F08D06D4EB04278
:1019F00005D06D4EB04202D06C4EB04206D14FF6CB
:101A0000FD76314044F00106314305E04FF6F576AE
:101A1000314044F00106314302830184F0BD70B5CA
:101A200005460C465D4885420ED05D4885420BD088
:101A3000B5F1804F08D05B48854205D05A488542B1
:101A400002D05A48854200D100E000BF208850B93A
:101A50002389A28861882846FFF7ABFFE1882846E2
:101A6000FFF79EFF25E0208804280AD12389A28859
:101A700061882846FFF753FFE1882846FFF742FFB9
:101A800017E0208808280AD12389A288618828467F
:101A9000FFF7FBFEE1882846FFF7EEFE09E0238909
:101AA000A28861882846FFF7A6FEE1882846FFF74E
:101AB00095FE70BD2DE9F04105460C460026012734
:101AC000608808B9022600E00026A088012801D11C
:101AD000022700E001272088A0B92389A288618815
:101AE0002846FFF766FFE1882846FFF759FF23895C
:101AF0003A4631462846FFF712FFE1882846FFF7AD
:101B000001FF13E02389A28861882846FFF707FFB9
:101B1000E1882846FFF7F6FE23893A4631462846F3
:101B2000FFF747FFE1882846FFF73AFFBDE8F0815D
:101B30000A884B881A438B881A43CB881A430B892F
:101B40001A434B891A438B891A43A0F844207047E3
:101B50004FF6FF71818000210180C18041800172B8
:101B600070470021018041808180C18001814181D5
:101B70008181C181704700210180418001218180E4
:101B80000021C18001817047002101804180818056
:101B9000C18001814181818170470000002C01409A
:101BA000003401400004004000080040000C0040E8
:101BB00021B1028842F00102028004E002884FF65F
:101BC000FE731A400280704731B1B0F8442042F4ED
:101BD0000042A0F8442005E0B0F84420C2F30E0211
:101BE000A0F8442070471AB183890B43838102E037
:101BF00083898B43838170478182704741EA020366
:101C0000A0F8483070471AB183890B43838102E002
:101C100083898B438381704701894FF6F8721140A5
:101C2000018170470A46002101894FF68F731940E0
:101C300011430181704730B504460D4629462046C0
:101C4000FFF7F0FF208940F00700208130BD2DE92B
:101C5000F04104460D4616461F46602D06D13B4610
:101C6000012231462046FFF75AFE05E03B4601229D
:101C700031462046FFF79DFE29462046FFF7D2FF5A
:101C8000208940F007002081BDE8F08130B50C4686
:101C900000210189C9B24FF6FF7505EA03251543F6
:101CA00025432943018130BD2DE9F04105460E460B
:101CB00017469846002443463A4631462846FFF7E1
:101CC000E5FF2C894FF6F870044044F007044FF606
:101CD0008F70044044F070042C81BDE8F081F0B5B1
:101CE00004460D4616461F463B46324629462046C8
:101CF000FFF7CCFF208940F480402081F0BD0185B2
:101D0000828270470A46002101884FF68F7319407E
:101D1000114301807047F0B50C4615461E46002160
:101D2000002200230189028B038C4FF6F87739409B
:101D300021434FF6FC473A4040F201173A434FF631
:101D4000DD773B404FF6FF7707EA06172F433B430B
:101D5000018102830384F0BD0A460021018B4FF606
:101D60008F7319401143018370470A460021018B8C
:101D700048F6FF7319404FF6FF7303EA0223194335
:101D8000018370470A460021818B4FF68F731940FB
:101D90001143818370470A460021818B48F6FF7307
:101DA00019404FF6FF7303EA0223194381837047FA
:101DB00021B1028842F08002028004E002884FF6DE
:101DC0007F731A400280704721B1828842F004027A
:101DD000828004E082884FF6FB731A40828070474D
:101DE00021B1828842F00802828004E082884FF6A6
:101DF000F7731A408280704721B1828842F0010255
:101E0000828004E082884FF6FE731A408280704719
:101E10000A460021018B4FF6F773194011430183E5
:101E200070470A460021018B4FF2FF7319404FF6AD
:101E3000FF7303EA02231943018370470A46002116
:101E4000818B4FF6F77319401143818370470A461F
:101E50000021818B4FF2FF7319404FF6FF7303EAA5
:101E600002231943818370470A460021018B4FF6F4
:101E7000FB7319401143018370470A460021018B0F
:101E80004FF6FF3319404FF6FF7303EA022319435D
:101E9000018370470A460021818B4FF6FB7319407E
:101EA0001143818370470A460021818B4FF6FF332F
:101EB00019404FF6FF7303EA0223194381837047E9
:101EC0000A460021018B4FF67F73194011430183AD
:101ED00070470A460021018BC1F30E014FF6FF73D4
:101EE00003EA02231943018370470A460021818BCC
:101EF0004FF67F7319401143818370470A460021D2
:101F0000818BC1F30E014FF6FF7303EA02231943DD
:101F1000818370470A460021018C4FF6FD731940FA
:101F20001143018470470A460021018C4FF6F77374
:101F300019401143018470470A460021018C4FF675
:101F4000DF7319404FF6FF7303EA0213194301844C
:101F500070470A460021018C4FF67F7319404FF6F7
:101F6000FF7303EA02131943018470470A460021F4
:101F7000018C4FF6FF5319404FF6FF7303EA02231B
:101F80001943018470470A460021018C4FF2FF7308
:101F900019404FF6FF7303EA022319430184704787
:101FA0000A460021018C4DF6FF7319404FF6FF736E
:101FB00003EA023319430184704730B5002301243A
:101FC0008C40A3B2048C9C430484048C02FA01F577
:101FD000ADB22C43048430BD30B5002304248C40C2
:101FE000A3B2048C9C430484048C02FA01F5ADB2C4
:101FF0002C43048430BD70B50346002000241846ED
:10200000183001258D40ACB21D8CA5431D8409B14B
:10201000082909D100EB6100056825F0700505600D
:102020000568154305600EE00D1FC5F34E052844F5
:10203000056825F4E045056005684FF6FF7606EA79
:1020400002263543056070BD21B1028842F00202CC
:10205000028004E002884FF6FD731A400280704748
:1020600021B1028842F00402028004E002884FF6A7
:10207000FB731A400280704721B1828842F08002CF
:10208000828004E082884FF67F731A408280704716
:1020900002884FF6F7731A40028002880A430280D2
:1020A000704782884FF68F731A40828082880A4375
:1020B0008280704702894FF6F8731A4002810289C4
:1020C0000A430281704702894FF67F731A400281EA
:1020D00002890A4302817047818470478185704775
:1020E000818670470187704781877047A0F840104C
:1020F000704702884FF6FF431A40028002880A4365
:10210000028070470146888E70470146088F7047ED
:102110000146888F70470146B1F84000704701467C
:10212000888C70470146088D704702460020138A4C
:102130000B400BB1012000E000207047CA4302822F
:10214000704730B50246002000230024158A05EAB6
:102150000103958905EA010413B10CB1012000E0E7
:10216000002030BDCA4302827047000010B504460B
:10217000FB48844209D101218803FFF79FF8002121
:102180004FF48040FFF79AF832E0F648844209D1D4
:1021900001214804FFF79FF800214FF40030FFF7BA
:1021A0009AF825E0F048844209D101218804FFF71C
:1021B00092F800214FF48020FFF78DF818E0EB48EB
:1021C000844209D10121C804FFF785F800214FF4AA
:1021D0000020FFF780F80BE0E548844208D1012198
:1021E0000805FFF778F800214FF48010FFF773F827
:1021F00010BD2DE9F04786B005460E460024A246E4
:1022000000BFA1460027B08900B100BF2F462C8A2D
:102210004CF6FF700440F08804432C82AC894EF6E3
:10222000F3100440B088318908437189084304439E
:10223000AC81AC8A4FF6FF400440B0890443AC82C5
:1022400001A8FEF7B4FFC648874202D1DDF810A00E
:1022500001E0DDF80CA0A88900F4004040B10AEBD1
:10226000CA0000EB0A1031684900B0FBF1F807E042
:102270000AEBCA0000EB0A1031688900B0FBF1F8E4
:102280006420B8FBF0F004012009642101FB1089EF
:10229000A88900F4004040B1322000EBC900B0FB37
:1022A000F1F000F00700044308E0322000EB0910D1
:1022B0006421B0FBF1F000F00F0004432C8106B064
:1022C000BDE8F0874FF41651016000218180C18084
:1022D00001810C21418100218181704710B50246A6
:1022E0000020108A4FF2FF0318400B884C882343CC
:1022F0008C882343CC8823431843108210BD0021CF
:10230000018041808180C180704721B1828942F47F
:102310000052828104E082894DF6FF731A40828167
:102320007047F0B50346002400260025002040F643
:102330006A17B94200D100BF1846C1F3421401F038
:102340001F06012707FA06F5012C01D10C3004E025
:10235000022C01D1103000E014301AB107682F436D
:10236000076002E00768AF430760F0BD1AB1838AD7
:102370000B43838202E0838A8B4383827047028A05
:102380004FF6F0731A400282028A0A4302827047B3
:1023900082894FF2FF731A40828182890A438281C7
:1023A000704721B1828942F00202828104E0828971
:1023B0004FF6FD731A4082817047028A4FF6DF7331
:1023C0001A400282028A0A430282704721B1028ABD
:1023D00042F48042028204E0028A4BF6FF731A4004
:1023E00002827047C1F308028280704701468888E4
:1023F000C0F308007047818941F001018181704775
:10240000028BD2B20283028B42EA0122028370471E
:10241000028B02F47F420283028B0A4302837047DD
:1024200021B1828A42F02002828204E0828A4FF641
:10243000DF731A408282704721B1828A42F0100213
:10244000828204E0828A4FF6EF731A4082827047DC
:1024500021B1828A42F00802828204E0828A4FF629
:10246000F7731A408282704721B1828942F4004298
:10247000828103E08289C2F30E028281704721B11A
:10248000828A42F40062828204E0828A4FF2FF7301
:102490001A4082827047828A4FF6FB731A4082820A
:1024A000828A0A438282704721B1828A42F0020204
:1024B000828204E0828A4FF6FD731A40828270475E
:1024C00002460020B1F5007F00D100BF13880B4009
:1024D0000BB1012000E00020704701F40072B2F55A
:1024E000007F00D100BFCA430280704770B502462A
:1024F000002400230025002040F66A16B14200D1D6
:1025000000BFC1F3421501F01F03012606FA03F3D1
:10251000012D02D19689334006E0022D02D1168AA0
:10252000334001E0968A33400C12012606FA04F487
:102530001688344013B10CB1012000E0002070BDBA
:1025400010B50022002340F66A14A14200D100BF5A
:102550000A1201249440A3B2DC43048010BD0000A1
:10256000003801400044004000480040004C00405A
:102570000050004040EA01039B0703D009E008C96E
:10258000121F08C0042AFAD203E011F8013B00F838
:10259000013B521EF9D27047D2B201E000F8012B84
:1025A000491EFBD270470022F6E710B513460A46D3
:1025B00004461946FFF7F0FF204610BD70B50646E9
:1025C00000F08EFA046805460A220021304600F029
:1025D0004AF92C6070BD2DE9FE4F81EA030404F036
:1025E000004421F0004100944FF0000B23F0004321
:1025F00050EA01045ED052EA03045BD0C3F30A54EC
:10260000C1F30A552C44A4F2F3340194A0FB025404
:10261000C1F3130141F48011C3F3130343F4801396
:1026200001FB024400FB034E840A970A44EA8154EA
:1026300047EA8357A4FB076802958D0A05FB0785C7
:102640004FEA932C04FB0C542705029D4FEA0658D1
:1026500047EA1637B5EB08056EEB070C870E920EAE
:1026600047EA811742EA8312A7FB0201B6EB0B018E
:1026700064EB00042B0D43EA0C335E1844EB1C5052
:10268000DA465146E7FB0201C5F313044FEA0B3368
:1026900043EA14534FEA0432019C43EA0603A4F1CF
:1026A0000C040294009CCDE900B400F023F903B0BF
:1026B000BDE8F08F00200146F9E72DE9F04D81EAF1
:1026C000030404F0004B21F0004514464FF0000ACB
:1026D00023F0004150EA050220D054EA01021DD047
:1026E000C5F30A570246C5F31303C1F31300C1F340
:1026F0000A5640F4801543F48013A7EB0608101B1C
:10270000D64608F2FD3873EB050002D308F1010844
:1027100001E092185B41B8F1000F03DA0020014696
:10272000BDE8F08D00204FF48011064684460EE08F
:10273000171B73EB050705D3121B63EB0503064359
:102740004CEA010C49084FEA300092185B4150EA0C
:102750000107EDD152EA030012D082EA040083EAB5
:102760000501084305D0101BAB4106D2012200230E
:1027700006E000224FF0004302E06FF00102531028
:102780001AEB06004CEB085110EB0A0041EB0B0171
:10279000BDE8F04D00F09FB80EB540F23341029114
:1027A0000021CDE900110A460B4600F0A3F803B062
:1027B00000BDC1F30A5210B5C1F3130140F2FF335B
:1027C00041F480119A4201DA002010BD40F23343F7
:1027D0009A42A2F2334203DC524200F034F810BDB8
:1027E000904010BD2DE9F05F0546002092469B46C3
:1027F00088460646814640241BE028464146474617
:10280000224600F020F853465A46C01A914110D390
:1028100011461846224600F0CDF82D1A67EB010844
:102820004F4622460120002100F0C4F817EB0009B2
:102830004E41201EA4F10104DFDC484631462A4601
:102840004346BDE8F09F202A04DB203A21FA02F03B
:102850000021704721FA02F3D040C2F120029140DA
:102860000843194670472DE9F04791460F468046C8
:102870000446002614F8015B2DB100F0ABF80068A7
:10288000405DC007F6D12B2D02D02D2D18D0641E2F
:102890004A463946204600F0A1F827B13968A142DE
:1028A00001D1C7F8008071054FF002040BD54042FA
:1028B000002803DD00F014F90460A007BDE8F087EC
:1028C00046F48066E4E70028F8DA00F009F90460CD
:1028D0006FF00040F2E710B5141E73F1000408DA3F
:1028E000401C41F1000192185B411A4301D120F0D4
:1028F000010010BD2DE9F04D92469B4611B1B1FA91
:1029000081F202E0B0FA80F22032904600F052F8F4
:1029100004460F4640EA0A0041EA0B0153465A4674
:10292000084313D0114653EA010019D0C8F1400200
:102930005046FFF788FF05460E4650465946424628
:1029400000F038F8084305D0012004E0204639465D
:10295000BDE8F08D0020054346EAE0762C4337437E
:102960000A986305E40AA0EB08000022FD0A44EA85
:1029700047540A3002D500200146E9E70105101945
:102980006941DDE9084500196941BDE8F04DA2E75C
:10299000064C074D06E0E06840F0010394E80700AC
:1029A00098471034AC42F6D3FDF7A4FB543000082E
:1029B00074300008202A04DB203A00FA02F10020DB
:1029C00070479140C2F1200320FA03F3194390406D
:1029D0007047000000487047F82F00082DE9F05FAD
:1029E00082460078002715468B460AF10104B94655
:1029F000302801D09DB113E014F8010B012778288D
:102A000003D0582801D045B10AE00DB1102D07D1EF
:102A10000027102514F8010B02E0082500E00A2524
:102A20000026B0460EE005FB080005FB06F1012775
:102A300001EB10461FFA80F8B6F5803F00D3B94687
:102A400014F8010B294600F018F80028EBDABBF166
:102A5000000F05D00FB1641E00E05446CBF80040D3
:102A6000B9F1000F06D000F03BF802210160C81E4A
:102A7000BDE8F09F48EA0640FAE73A2800D230382D
:102A800020F02002412A01D3A2F13700884201D36D
:102A90004FF0FF30704700000FB4054B10B503A98D
:102AA000044A029800F030F810BC5DF814FB0000F6
:102AB000A70800082C0000200FB4084B10B504A98B
:102AC00002AA039800F020F8044602A9002000F0B2
:102AD0004CFA204610BC5DF814FB00006B2F000878
:102AE000004870474C00002002E008C8121F08C1CF
:102AF000002AFAD170477047002001E001C1121F7F
:102B0000002AFBD1704700002DE9FF4F8DB00F4622
:102B10000546002606E025280BD0DDE90F12904778
:102B20006D1C761C28780028F5D111B03046BDE820
:102B3000F08F0024A246A1460122EC4900E00443A4
:102B400015F8013F203B02FA03F00842F7D128783C
:102B50002A2810D06FF02F022878A0F1300109291F
:102B600014D80AEB8A0102EB410144F0020400EBA5
:102B7000010A6D1CF0E701CF5FEA000A03D544F4B7
:102B80000054CAF1000A44F002046D1C28782E2873
:102B900017D115F8010F44F004042A280ED06FF065
:102BA0002F022878A0F1300109290AD809EB890100
:102BB00002EB410100EB01096D1CF2E757F8049BA1
:102BC0006D1C28786C280FD006DC4C2817D068289C
:102BD0000DD06A2814D104E0742810D07A280FD1BF
:102BE0000DE044F400140AE044F4801401E044F4DD
:102BF00040146978814202D104F580146D1C6D1C6B
:102C00002A786E2A1FD00CDC632A31D004DC002A1B
:102C10008BD0582A11D1A3E0642A68D0692A0CD13C
:102C200065E0732A2ED004DC6F2A73D0702A04D199
:102C30009BE0752A6FD0782A6ED01046DDE90F121E
:102C40009047761C50E1C4F30250022806D00328B6
:102C500009D0042801CF09D0066045E101CFF11762
:102C6000C0E9006140E101CF06803DE106703BE133
:102C700017F8040B8DF8000000208DF80100EB46DA
:102C8000012003E057F804BB4FF0FF3061074FF01D
:102C9000000102D40DE008F10101884649450FDA30
:102CA0008045F8DB1BF808100029F4D108E008F192
:102CB000010188468142FADB1BF808100029F6D191
:102CC000DDE90F23AAEB08008146214600F036F922
:102CD000304400EB080604E0DDE90F121BF8010B9D
:102CE0009047B8F10108F7D221464846F7E00A219B
:102CF000C4F302534FF0000B0891022B04D001CF14
:102D0000C117032B09D00AE0FF1D27F00707F7E8DA
:102D1000020108E032E01FE020E000B2C117042BFE
:102D200001D140B2C117031E71F1000307DA4FF061
:102D3000000CD0EB0C006CEB01012D2302E023050D
:102D400004D52B238DF82430012303E0E30701D0C1
:102D50002023F7E7984658E00A2110E010210EE002
:102D600010204FF0000B08900CE010214FF0000BEA
:102D700044F004044FF00809089103E008214FF0E3
:102D8000000B0891C4F30253022B04D001CF0021A1
:102D9000032B06D006E0FF1D27F00707F7E8020126
:102DA00003E080B2042B00D1C0B24FF0000823072B
:102DB0002BD5702A07D0DDF820C08CF0100C5CEA0F
:102DC0000B0C05D00EE040238DF82430012308E0E1
:102DD00050EA010306D030238DF824308DF82520E9
:102DE00002239846DDF820C08CF0080C5CEA0B0C3E
:102DF0000BD150EA010301D1630706D530238DF8CA
:102E000024304FF00108A9F10109582A04D038A252
:102E10000B9208AA0A920BE03AA2F9E75B46089ADD
:102E2000FFF7E0FC0B9B9B5C0A9A521E0A92137000
:102E300050EA0102F2D10A98ADEB000000F1200B3C
:102E4000600702D524F4803401E04FF00109D94530
:102E500002DDA9EB0B0000E0002000EB0B01414478
:102E60000890AAEB010AE00306D4DDE90F2321460E
:102E7000504600F063F806444FF0000908E009A945
:102E800011F80900DDE90F12904709F10109761CDC
:102E9000C145F4DBE0030CD5DDE90F2321465046A4
:102EA00000F04CF8064404E0DDE90F1230209047B2
:102EB000761C0899481E08900029F5DC08E00A985D
:102EC0000A990078491C0A91DDE90F129047761C97
:102ED000BBF10001ABF1010BF1DC21465046DDE90D
:102EE0000F2300F019F806446D1C1BE609280100A9
:102EF0003031323334353637383961626364656670
:102F00000000000030313233343536373839414231
:102F100043444546000000002DE9F04104460025E9
:102F20001E461746880404D405E039462020B047E1
:102F30006D1C641EF9D52846BDE8F0812DE9F041ED
:102F4000044600251E469046C80301D5302700E000
:102F50002027880404D505E041463846B0476D1C5B
:102F6000641EF9D52846BDE8F0810A68531C0B6041
:102F70001070704700404040404040404040414158
:102F8000414141404040404040404040404040403E
:102F900040404040400502020202020202020202D8
:102FA00002020202022020202020202020202002D5
:102FB0000202020202029090909090901010101065
:102FC0001010101010101010101010101010101001
:102FD0000202020202028888888888880808080895
:102FE0000808080808080808080808080808080861
:102FF0000202020240000000752F000824475052D0
:103000004D432C2530326425303264253032642E15
:1030100030302C412C323330322E32343237373983
:1030200031302C4E2C31313332332E343337383764
:103030003734302C452C302E3031372C3330382E6D
:10304000342C3132303331382C332E322C572C4142
:103050002A0000007430000800000020500000002A
:10306000E82A0008C43000085000002008060000CC
:10307000F82A00081400000000A24A040000000022
:103080000000000001020304060708090000000018
:103090000000000000000000000000000000000030
:1030A0000000000000000000000000000000000020
:1030B00001020304010203040607080902040608CA
:0430C000000000000C
:04000005080000ED02
:00000001FF
